:020000040800F2
:10000000389A01209D010008AB010008AD010008ED
:10001000AF010008B1010008B301000800000000B2
:10002000000000000000000000000000B501000812
:10003000B701000800000000B9010008BB0100087A
:10004000BD010008BD010008BD010008EDAA0008BF
:10005000BD010008BD010008BD010008BD01000888
:10006000BD010008BD010008BD010008BD01000878
:10007000BD010008BD010008C13A0008E93A0008C6
:10008000BD010008113B0008BD010008751F0008F4
:10009000591E0008BD010008BD010008BD0100088F
:1000A000FDC80008BDC900085DC90008BD01000801
:1000B00065CA0008B1CA000805CB0008BD010008E8
:1000C000BD010008BD010008BD010008BD01000818
:1000D000BD010008B1D10008BD0100082DD2000803
:1000E000BD010008D9A70008BD01000865CC0008C3
:1000F00025CD0008C5CC0008BD0100082D3B000837
:10010000BD010008B1AC000865CB0008BD010008C6
:1001100031CF0008BD010008C5CB0008BD010008B3
:10012000BD010008BD010008BD010008BD010008B7
:10013000BD010008914D0008BD010008BD01000887
:10014000BD010008BD010008BD010008DDA20008D6
:10015000BD010008493B0008693B0008BD010008DB
:10016000BD010008BD010008BD010008BD01000877
:10017000BD010008BD010008BD010008BD01000867
:10018000BD010008BD010008DFF80CD000F09EF8AA
:10019000004800477D060008389A01200848016899
:1001A00041F47001016007480047FEE7FEE7FEE703
:1001B000FEE7FEE7FEE7FEE7FEE7FEE7FEE70000FC
:1001C00088ED00E08901000840EA01039B0703D0A5
:1001D00009E008C9121F08C0042AFAD203E011F886
:1001E000013B00F8013B521EF9D27047D2B201E048
:1001F00000F8012B491EFBD270470022F6E710B52C
:1002000013460A4604461946FFF7F0FF204610BD84
:1002100030B504460020034600E05B1C934203D245
:10022000E05CCD5C401BF8D030BD2DE9F05F0546A9
:10023000002092469B4688460646814640241BE0A5
:10024000284641464746224600F02FF853465A4674
:10025000C01A914110D311461846224600F016F8F4
:100260002D1A67EB01084F4622460120002100F0BD
:100270000DF817EB00094E41201EA4F10104DFDC4C
:10028000484631462A464346BDE8F09F202A04DB13
:10029000203A00FA02F1002070479140C2F1200399
:1002A00020FA03F3194390407047202A04DB203AD8
:1002B00021FA02F00021704721FA02F3D040C2F186
:1002C000200291400843194670470000064C074D34
:1002D00006E0E06840F0010394E807009847103416
:1002E000AC42F6D3FFF754FFA0B60108C0B6010830
:1002F00070B58C1810F8015B15F0070301D110F8E8
:10030000013B2A1106D110F8012B03E010F8016B14
:1003100001F8016B5B1EF9D12B0705D40023521E97
:100320000DD401F8013BFAE710F8013BCB1A921CFF
:1003300003E013F8015B01F8015B521EF9D5A142FD
:10034000D8D3002070BD00001FB5804C4FF47A71E7
:1003500042F2107044F25463CDE90011029004F5AA
:10036000437104F57A62204613F088FE41F6E840B6
:100370002058EA2818BF00F045F800F05EF9012087
:10038000C4F8EC0303482060714804B0BDE8104095
:1003900000F086B88CD11E002DE9F843DFF8AC815F
:1003A00000264FF0C80940F6DC751BE0F4B208EBFC
:1003B0008607204605F0BCFC0146C7F8900108EB13
:1003C000050000F0C7F808EB090008EB460780EDD0
:1003D000000A204605F0BCFCA7F86400443509F18A
:1003E00004090136082EE1D10024042C08BFBDE821
:1003F000F883E0B208EB840505F0EEF8C5F8580282
:100400000134F2E710B5514C4FF4576104F57A60AE
:10041000FFF7F3FE04F5FA502821FFF7EEFE41F650
:10042000E840EA212150BDE8104005F025BF00BF9B
:10043000017801290BD14168012904D0002918BF96
:100440007047012141600020002109F05DBF704725
:1004500002684AB110B504460846114600F005F896
:1004600000202060BDE81040704770B50646006867
:100470000024D6E90123043201E00C3201349C420D
:10048000A8BF70BD12F8045C8D42F6D112F8035C6F
:10049000A842F2D1D2E9000400B18047346070BDB7
:1004A000034B06221221C0E900238160704700BF80
:1004B000D407002010B5254C04F5587004F26131C2
:1004C00004F2623204F263330AF0DEF904F5597083
:1004D00004F2653104F2663204F267330AF0B6F9C9
:1004E00005F064FC06F0EEF80220012106F07CF82D
:1004F0000020012106F078F806F008F905F0E8FE82
:1005000005F004FF05F00DFCBDE81040FFF744BF07
:100510007047704780B500F02DF80C480C4900F684
:10052000B830FFF795FFFFF7F4FF00F022F800F076
:1005300022F80020012109F0E7FE0120002109F046
:10054000E3FE5B48BDE88040FFF772BFCC18012096
:10055000205F012090ED000A90ED011A02EE101AC2
:10056000B8EEC22A21EE021AB8EE400A81EE000A65
:10057000704770477047704780B50CF0C9FD05F0B3
:1005800077F90EF085FE16F0CFFE04F0E5FFBDE82A
:10059000804006F095BA0000FEB50EF073FE12F032
:1005A00089FF00F0A3F903F0F5FA16F02FFF0AF027
:1005B00089F905F0C5F809F061FF06F09DFA0CF025
:1005C00009F94FF4FA7002F0D9F9184C184D0A26BF
:1005D0004FF4E13700204FF49673CDE900762146C1
:1005E0002A4610F0A7FB04F5967105F596720120D6
:1005F0004FF49673CDE9007610F09CFB41F69974A8
:10060000C020A82101226423009405F019F9C0201C
:10061000A82101221E23009405F0FAF805484FF4A2
:10062000806103B0BDE8F04005F0AAB8DC630120AA
:10063000846101202C5F0120704710B5002404E084
:10064000E0B2012109F060FE0134182CF8D1002439
:10065000082C08BF10BDE0B2012104F09BFA013460
:10066000F6E710B5C4B2204605F012FC2046BDE8FE
:10067000104005F07DBBC0B205F03ABD00F021F896
:10068000FFF762FE00F016F8FFF744FFFAE7704745
:1006900080B505F0F1FD002080BD70470448D0F81A
:1006A000FC100847704700000148D0F800110847C7
:1006B000AC08002080B5FFF7FDFEBDE88040FFF7E5
:1006C0005BBF80B516F047FFFFF766FFBDE88040CF
:1006D000FFF752BF0146082904DA044850F8210008
:1006E000008870474FF0FF30FBE700000802002051
:1006F0001CB5012031490880314908800020009054
:1007000003460322022101902E4805F00FFA2E48DD
:10071000006840F480702C4908600846006820F4A6
:10072000807008604FF44030284908600020284954
:1007300048608860084640684860084640684860ED
:100740000846806840F0020088600846806820F40F
:10075000006088600846806888600846C06A20F4A7
:100760007000C8620846C06AC8620846006920F086
:10077000605008610846006940F040500861084632
:10078000806840F0010088600846806840F400708E
:1007900088600846806840F4807088600846406B36
:1007A00020F01F0048630846406B40F00900486392
:1007B0000846806840F0804088601CBDA008474221
:1007C000040647420004024024380240042301404A
:1007D000002001401CB501203E4908803E490880A8
:1007E0000020009003460322012101903B4805F0C0
:1007F0009DF93B48006840F400703949086008469C
:10080000006820F40070086000203649086036490E
:10081000C1F8080133480068C1F804013148006894
:10082000C1F804010846D0F8080140F00200C1F800
:1008300008010846D0F8080120F40060C1F808015A
:100840002848001D0068C1F808010846D0F82C01AE
:1008500020F47000C1F82C01224828300068C1F84B
:100860002C010846D0F8100120F0E060C1F810011A
:100870000846D0F8100140F0E060C1F810010846C9
:10088000D0F8080140F00100C1F808010846D0F88E
:10089000080140F40070C1F808010846D0F80801CA
:1008A00040F48070C1F808010846D0F8340120F007
:1008B0001F00C1F834010846D0F8340140F00800A8
:1008C000C1F834010846D0F8080140F08040C1F872
:1008D00008011CBDA4084742040647420004024028
:1008E0002438024004210140002001401CB50A20A8
:1008F0003221124B124ACDE900100021114806F0B6
:1009000017F90A2032210D4B64330F4ACDE900104C
:1009100001210C48303006F00BF93221094806F06D
:10092000DFF932210748303006F0DAF9022011F001
:100930000DF9FFF7DDFEFFF74DFF1CBDB41D0020D4
:100940004C200140106402404C21014013200FE074
:100950000949096851F8201049B10146C21700EB56
:1009600092729210521C044B1B681A6502E0401EE2
:100970000028EDDA00BF7047000000200C4A116823
:10098000B1F8D428012A11D10022A1F8D4280020DE
:1009900006E00022074B1B6843F82020421CD0B21F
:1009A0001428F6DB0022034B1B681A657047000011
:1009B000080000200000002030B5012818DB0528C1
:1009C00016DC032914DC1F2A12DC0423C3EB80038A
:1009D0000B44084C246854F82330012494402343EA
:1009E0000424C4EB80040C44024D2D6845F82430E7
:1009F00030BD00000000002070B505460C46012CFB
:100A000000DD70BD2846FFF765FEA0420ED12846E6
:100A100001F07CF80121284601F064F80720C5EBBD
:100A2000C501034A02EB011181F8640000BFE8E749
:100A300024160020C0EBC001074A02EB0111B1F8F7
:100A4000601039B90021C0EBC002034B03EB021266
:100A500082F86410704700002416002070470000E0
:100A6000C0EBC001074A02EB0111B1F8601039B9BF
:100A70000021C0EBC002034B03EB021282F86410AA
:100A800070470000241600207047000010B50020B9
:100A90004F49087096E04E480078C0EBC0004D49C1
:100AA00001EB0010B0F8600048B14B4848490978A4
:100AB000405C20B901214848454A12788154464893
:100AC00043490978405C012804D0022847D0032814
:100AD00072D171E03E48007802F05EF93C49097835
:100AE000C1EBC1013B4A02EB0111C86538480078EF
:100AF000C0EBC00002EB0010C16D3548007809F072
:100B0000F1FC3348007809F07BFC31490978C1EBEE
:100B1000C101304A02EB011191F96C102C4A127894
:100B2000C2EBC2022B4B03EB0212526D00FB012001
:100B300027490978C1EBC1011A4602EB011188650A
:100B40002348007809F084FC40B9234820490978FB
:100B5000405C401C20491E4A127888542CE01C48F6
:100B6000007809F04DFC1A490978C1EBC101194A16
:100B700002EB011191F96C10154A1278C2EBC20216
:100B8000144B03EB0212526D00FB0120104909784F
:100B9000C1EBC1011A4602EB0111886500200C4926
:100BA0000978C1EBC10102EB0111A1F860000A490B
:100BB000074A1278885400BF00BF05480078401CDF
:100BC00003490870024800781028FFF664AF10BD92
:100BD0002000002024160020241D00207FB504469C
:100BE0000D46C4EBC400624901EB0010B0F8600090
:100BF00000287CD1C4EBC40001EB0010806DC4EB75
:100C0000C4015B4A02EB01114865C4EBC400114604
:100C100001EB00104068C4EBC40102EB0111C86590
:100C2000C4EBC40002EB0010C16D204609F05AFC71
:100C3000002D49DD0121204600F0D4FEC4EBC400A4
:100C40004B4A02EB00104168204609F04BFC294654
:100C5000204609F0FFFC0120C4EBC401444A02EB2A
:100C60000111A1F86000C4EBC400114601EB0010B3
:100C70004069C4EBC40102EB01118968C4EBC402F2
:100C80003B4B03EB0212126DC4EBC403384E06EB70
:100C90000313DB69CDE90032CDE90210C4EBC400D7
:100CA00006EB00100369C4EBC40006EB00104268B9
:100CB000C4EBC40006EB001090F82010204602F0B0
:100CC000C5FE002004B070BD002D4BDA4FF0FF319F
:100CD000204600F087FEC4EBC400254A02EB00105A
:100CE0004168204609F0FEFB6942204600E03BE0F7
:100CF00009F0B0FC0120C4EBC4011D4A02EB011154
:100D0000A1F86000C4EBC400114601EB001040697B
:100D1000C4EBC40102EB01118968C4EBC402144B9B
:100D200003EB0212126DC4EBC403114E06EB031366
:100D3000DB69CDE90032CDE90210C4EBC40006EB5B
:100D400000100369C4EBC40006EB00104268C4EB5A
:100D5000C40006EB001090F82010204602F076FE4A
:100D60000020AFE70020ADE74FF0FF30AAE700001A
:100D70002416002010B50446C4EBC400FE4901EB64
:100D8000001090F86400052813D1C4EBC40001EBF7
:100D90000010B0F8620060B90120C4EBC401F64A4B
:100DA00002EB0111A1F862000BF00EFDF34941F8CE
:100DB0002400C4EBC400F04901EB001090F864007B
:100DC00005282AD1C4EBC40001EB0010406B20B30E
:100DD0000BF0FAFCE94951F82410401AC4EBC401A5
:100DE000E54A02EB0111496B884216D902212046DF
:100DF00000F078FE204600F089FE0020C4EBC4011C
:100E0000DD4A02EB0111A1F862000720C4EBC40126
:100E100002EB011181F8640010BDC4EBC400D64997
:100E200001EB0010B0F862001C287AD2DFE800F075
:100E3000790E83B0C7FDFCFBFAF9F8F7F6F5F4F389
:100E4000F2F1F0EFEEEDECEBEAE9E8E7C4EBC40019
:100E5000C94901EB001090F8380000F00100C8B358
:100E6000C4EBC40001EB001090F83E0088B1C4EB65
:100E7000C401C14A02EB011191F8440000F0CAFD1F
:100E8000C4EBC401BC4A02EB011191F84210884244
:100E900021D0C4EBC400B84901EB0010406AC4EB98
:100EA000C401B54A02EB011108614FF01041204620
:100EB000FFF794FEC4EBC400AF4901EB0010B0F89B
:100EC0006200401CC4EBC401AB4A02EB0111A1F863
:100ED00062002FE0FFE7C4EBC400A74901EB00105C
:100EE00090F8380000F0080040B11020C4EBC401B5
:100EF000A14A02EB0111A1F862001BE0C4EBC4009F
:100F00009D4901EB001090F8380000F0100048B146
:100F10001620C4EBC401984A02EB0111A1F862004B
:100F200008E009E20420C4EBC401934A02EB01117A
:100F3000A1F8620000E2C4EBC4008F4901EB00108D
:100F400090F83E0018B3C4EBC4018B4A02EB0111C8
:100F500091F8440000F05EFDC4EBC401864A02EB48
:100F6000011191F84210884211D1204600F0CEFDC7
:100F7000C4EBC400804901EB0010B0F86200401CD3
:100F8000C4EBC4017C4A02EB0111A1F86200D3E179
:100F9000C4EBC400784901EB0010B0F8600068B9F8
:100FA000C4EBC40001EB0010B0F86200401CC4EBBD
:100FB000C401714A02EB0111A1F86200BCE1C4EB6B
:100FC000C4006D4901EB001090F8380000F00200F9
:100FD00060B3C4EBC40001EB001090F83D0030B3E7
:100FE000C4EBC401644A02EB011191F8430000F024
:100FF00011FDC4EBC401604A02EB011118E0FDE3EE
:10100000E4E3B7E38CE36AE31CE30AE3E4E2B7E278
:1010100087E265E217E2F8E1E0E1A5E18DE160E158
:1010200015E1FDE0D0E075E05DE02FE025E003E0B4
:1010300091F84110884220D0C4EBC4004E4901EB26
:101040000010406AC4EBC4014B4A02EB0111086175
:101050004FF0E0412046FFF7C1FDC4EBC400464914
:1010600001EB0010B0F86200401CC4EBC401424A1E
:1010700002EB0111A1F8620007E00720C4EBC401F4
:101080003D4A02EB0111A1F86200D7E3C4EBC400B2
:10109000394901EB001090F83D0018B3C4EBC401CE
:1010A000354A02EB011191F8430000F0B3FCC4EBA8
:1010B000C401314A02EB011191F84110884211D16B
:1010C000204600F023FDC4EBC4002B4901EB0010C7
:1010D000B0F86200401CC4EBC401274A02EB0111C6
:1010E000A1F86200AAE3C4EBC400234901EB00109D
:1010F000B0F8600068B9C4EBC40001EB0010B0F8B0
:101100006200401CC4EBC4011B4A02EB0111A1F8B0
:10111000620093E3C4EBC400174901EB001090F8A0
:10112000380000F0010030B3C4EBC40001EB001044
:1011300090F8380000F00200E8B9C4EBC40001EBFD
:101140000010406AC4EBC4010B4A02EB01110861B4
:101150004FF0E0412046FFF741FDC4EBC4000649D3
:1011600001EB0010B0F86200401CC4EBC401024A5D
:1011700002EB011104E006E024160020341D0020DB
:10118000A1F862001FE0C4EBC400FB4901EB0010B2
:10119000406AC4EBC401F84A02EB011108614FF048
:1011A00010412046FFF71AFDC4EBC400F24901EBE1
:1011B0000010B0F86200401CC4EBC401EE4A02EB20
:1011C0000111A1F8620039E3C4EBC400EA4901EB64
:1011D000001090F8300010B3C4EBC401E64A02EBF3
:1011E0000111488E00F016FCC4EBC401E24A02EB88
:1011F000011191F83110884211D1204600F086FC8F
:10120000C4EBC400DC4901EB0010B0F86200401CE4
:10121000C4EBC401D84A02EB0111A1F862000DE34E
:10122000C4EBC400D44901EB0010B0F8600068B909
:10123000C4EBC40001EB0010B0F86200401CC4EB2A
:10124000C401CD4A02EB0111A1F86200F6E2C4EB41
:10125000C400C94901EB001090F8300080B3C4EB22
:10126000C401C54A02EB0111488E00F0D3FBC4EB68
:10127000C401C14A02EB011191F83110884220D11A
:10128000C4EBC400114601EB0010806AC4EBC4013A
:1012900002EB011108614FF0E0412046FFF79EFC90
:1012A000C4EBC400B44901EB0010B0F86200401C6C
:1012B000C4EBC401B04A02EB0111A1F862000FE0D7
:1012C000FFE7C4EBC400AC4901EB0010B0F86200CA
:1012D000401CC4EBC401A84A02EB0111A1F8620052
:1012E000ACE2C4EBC400A44901EB001090F830005C
:1012F00080B1C4EBC401A04A02EB0111488E00F09A
:1013000089FBC4EBC4019C4A02EB011191F8311036
:10131000884211D0204600F0F9FBC4EBC400964986
:1013200001EB0010B0F86200401CC4EBC401924A0B
:1013300002EB0111A1F8620080E2C4EBC4008E4907
:1013400001EB0010B0F8600068B9C4EBC40001EB19
:101350000010B0F86200401CC4EBC401864A02EBE6
:101360000111A1F8620069E2C4EBC400824901EBFB
:101370000010C06A10B3C4EBC40001EB0010006998
:10138000C4EBC4017C4A02EB01110861C4EBC40048
:1013900002EB0010C16A2046FFF720FCC4EBC4003A
:1013A000754901EB0010B0F86200401CC4EBC401A9
:1013B000714A02EB0111A1F862000EE0C4EBC40017
:1013C0006D4901EB0010B0F86200401CC4EBC40191
:1013D000694A02EB0111A1F862002FE2C4EBC400DC
:1013E000654901EB0010B0F8600068B9C4EBC400B7
:1013F00001EB0010B0F86200401CC4EBC4015E4A6F
:1014000002EB0111A1F8620018E20020C4EBC40154
:10141000594A02EB01118865C4EBC40102EB0111CA
:101420000865C4EBC40102EB011181F86400204699
:1014300000F02AFB0020C4EBC4014F4A02EB01116B
:10144000A1F86200FAE1C4EBC4004B4901EB0010C3
:1014500090F8300080B1C4EBC401474A02EB01119F
:10146000488E00F0D7FAC4EBC401434A02EB0111E5
:1014700091F83110884219D0C4EBC4003E4901EB09
:101480000010406AC4EBC4013B4A02EB0111086141
:101490004FF0E0412046FFF7A1FB1120C4EBC4014F
:1014A000354A02EB0111A1F8620018E0C4EBC40058
:1014B000314901EB0010406AC4EBC4012E4A02EB33
:1014C000011108614FF0E0412046FFF787FB122031
:1014D000C4EBC401284A02EB0111A1F86200ADE19E
:1014E000C4EBC400244901EB001090F83000B8B1FF
:1014F000C4EBC401204A02EB0111488E00F08AFAC5
:10150000C4EBC4011C4A02EB011191F8311088426E
:1015100006D11220C4EBC40102EB0111A1F8620054
:101520008CE1C4EBC400144901EB001090F83000CA
:1015300080B1C4EBC401104A02EB0111488E00F0E7
:1015400069FAC4EBC4010C4A02EB011191F83110A5
:1015500088420FD0204600F0D9FA0BF035F9074940
:1015600041F824001320C4EBC401034A02EB01112B
:10157000A1F8620062E1000024160020741D002022
:10158000C4EBC400AF4901EB0010B0F8600010BB21
:101590000BF01AF9AC4951F82410401A40F6340106
:1015A000884218D3C4EBC400A64901EB0010806A3E
:1015B000C4EBC401A34A02EB011108614FF01041D2
:1015C0002046FFF70BFB1420C4EBC4019D4A02EB3D
:1015D0000111A1F8620031E1C4EBC400994901EBAB
:1015E000001090F83000D8B1C4EBC401954A02EB6A
:1015F0000111488E00F00EFAC4EBC401914A02EBCF
:10160000011191F8311088420AD1204600F07EFA8B
:101610001520C4EBC4018B4A02EB0111A1F8620052
:101620000CE1C4EBC400874901EB0010B0F8600086
:1016300038B90F20C4EBC401824A02EB0111A1F8B2
:101640006200FBE0C4EBC4007E4901EB001090F89F
:10165000300080B1C4EBC4017A4A02EB0111488E1C
:1016600000F0D8F9C4EBC401764A02EB011191F8FD
:101670003110884219D0C4EBC400724901EB00104C
:10168000406AC4EBC4016F4A02EB011108614FF0DC
:1016900010412046FFF7A2FA1720C4EBC401694AA3
:1016A00002EB0111A1F8620018E0C4EBC400654927
:1016B00001EB0010406AC4EBC401624A02EB011165
:1016C00008614FF010412046FFF788FA1820C4EB5C
:1016D000C4015C4A02EB0111A1F86200AEE0C4EB68
:1016E000C400584901EB001090F83000B8B1C4EBC9
:1016F000C401544A02EB0111488E00F08BF9C4EB8F
:10170000C401504A02EB011191F83110884206D110
:101710001820C4EBC40102EB0111A1F862008DE0B6
:10172000C4EBC400474901EB001090F8300080B1D1
:10173000C4EBC401434A02EB0111488E00F06AF980
:10174000C4EBC4013F4A02EB011191F83110884209
:101750000FD0204600F0DAF90BF036F83A4941F89C
:1017600024001920C4EBC401364A02EB0111A1F890
:10177000620063E0C4EBC400324901EB0010B0F832
:10178000600010BB0BF020F82F4951F82410401ACC
:1017900040F63401884218D3C4EBC400294901EB58
:1017A0000010806AC4EBC401264A02EB01110861F3
:1017B0004FF0E0412046FFF711FA1A20C4EBC401B4
:1017C000204A02EB0111A1F8620037E0C4EBC4002B
:1017D0001C4901EB001090F83000E8B1C4EBC401E3
:1017E000184A02EB0111488E00F014F9C4EBC40151
:1017F000144A02EB011191F8311000E00DE088422B
:101800000AD1204600F082F91B20C4EBC4010D4A26
:1018100002EB0111A1F8620010E0C4EBC400094919
:1018200001EB0010B0F8600038B90F20C4EBC40120
:10183000044A02EB0111A1F8620000BF00BF00BF23
:10184000FFF7EABA24160020741D002010B50446E4
:10185000C4EBC400314901EB001090F86C00012882
:1018600028D1C4EBC40001EB001090F83D0008B390
:10187000C4EBC401294A02EB011191F8430000F0C6
:10188000C9F8C4EBC401254A02EB011191F84110DB
:1018900088420FD14FF48071204600F023F9204692
:1018A00000F034F90720C4EBC4011C4A02EB01111B
:1018B00081F86400C4EBC400184901EB001090F9F2
:1018C0006C00B0F1FF3F28D1C4EBC40001EB001065
:1018D00090F83E0008B3C4EBC401104A02EB0111BA
:1018E00091F8440000F096F8C4EBC4010B4A02EBF7
:1018F000011191F8421088420FD14FF480512046D7
:1019000000F0F0F8204600F001F90720C4EBC40114
:10191000024A02EB011181F8640010BD2416002078
:1019200010B50446C4EBC4002C4901EB001090F83C
:101930003F0020B3C4EBC40001EB001090F86C0032
:1019400001281CD1C4EBC40001EB0010806DC4EB76
:10195000C401224A02EB0111896C88420FDD4FF469
:101960000071204600F0BEF8204600F0CFF80720B6
:10197000C4EBC401194A02EB011181F86400C4EB05
:10198000C400164901EB001090F8400028B3C4EBE6
:10199000C40001EB001090F96C00B0F1FF3F1CD1C6
:1019A000C4EBC40001EB0010806DC4EBC4010B4A12
:1019B00002EB0111C96C88420FDA4FF40051204646
:1019C00000F090F8204600F0A1F80720C4EBC40115
:1019D000024A02EB011181F8640010BD24160020B8
:1019E0007047000070B505460C46C5EBC5000849B8
:1019F00001EB001080F86C40002C04DD012128462A
:101A000002F02AF903E00021284602F025F970BD12
:101A10002416002010B50446802C04D2E0B204F055
:101A2000E3FEC0B210BD802C08D3902C06D2A4F1E6
:101A30008001C8B2FEF74EFEC0B2F3E7902C08D387
:101A4000A02C06D2A4F19001C8B205F02BF8C0B2C8
:101A5000E8E7C02C09D3D02C07D2A4F1C001C8B24A
:101A6000002103F04BFEC0B2DCE7D02C09D3E02C00
:101A700007D2A4F1D001C8B2012103F03FFEC0B2E9
:101A8000D0E70020CEE70000C0EBC001104A02EB17
:101A900001110968C0EBC0020D4B03EB021251604B
:101AA000C0EBC0011A4602EB0111C968C0EBC002CD
:101AB00003EB02121161C0EBC0011A4602EB0111E7
:101AC0008969C0EBC00203EB0212D16170470000CC
:101AD000241600200146142901D21420704708461C
:101AE000FCE7000010B510280CDAC0EBC002064B72
:101AF00003EB0212926E0A43C0EBC003024C04EBEC
:101B000003139A6610BD00002416002010B5044689
:101B1000204608F0D9FD10BD7FB50446204601F0EF
:101B20008BF80546204608F07FFC0646204608F064
:101B300067FC301AA8424DD9C4EBC400264901EB1A
:101B40000010C06DC4EBC401234A02EB01114860D0
:101B5000C4EBC400114601EB0010C06DC4EBC4011E
:101B600002EB01110861204608F04AFC4619314693
:101B7000204608F0A3FCC4EBC400174901EB001099
:101B80004069C4EBC401144A02EB01118968C4EB3B
:101B9000C402114B03EB0212126DC4EBC4030E4ED0
:101BA00006EB0313DB69CDE90032CDE90210C4EB8B
:101BB000C40006EB00100369C4EBC40006EB001080
:101BC0004268C4EBC40006EB001090F820102046D9
:101BD00001F03CFF7FBD000024160020C0EBC001D7
:101BE000074A02EB0111B1F8601039B90021C0EBCE
:101BF000C002034B03EB021282F86410704700002E
:101C000024160020C0EBC001074A02EB0111B1F815
:101C1000601039B90021C0EBC002034B03EB021284
:101C200082F86410704700002416002070470000FE
:101C30002DE9FC4704460D4616461F46DDF8289060
:101C40004FF0000814B10DB106B117B90120BDE87D
:101C5000FC87601EC4B2681EC5B2701EC6B2781E74
:101C600087B201206D4908800880022100230A46BE
:101C7000CDE900106A4803F059FF0120022100233A
:101C80000A46CDE900100146654803F04FFF0922DE
:101C90000121634803F02AFF09220021604803F074
:101CA00025FF01205F49088000205F490860084641
:101CB000006840F00100086008E008F101001FFA28
:101CC00080F8B8F1640F01DD0220C0E75648001D1E
:101CD000006800F001000028EFD053480068524926
:101CE00008600846006840F0400008600846006848
:101CF00008600846006840F0100008600846006868
:101D00000860084600680860002047491C310860E8
:101D10000846006840EA897008600846006840EAA2
:101D2000046008600846006840EA055008600846FC
:101D3000006840EA064008600846006838430860CA
:101D40003948006820F001003749086009E008F1CF
:101D500001001FFA80F84FF6F070804501DD032086
:101D600075E73148001D006800F001000028EED141
:101D70002E48006840F001002C4908602B481C30B8
:101D8000006820F0010029491C31086027480C3008
:101D9000006840F0010025490C3108602348001D0F
:101DA00000682249091D08602048143000681F4956
:101DB0001431086000201D494031086000211B4893
:101DC0004430016019481C30006840F00100174998
:101DD0001C3108601548006800201449086012484A
:101DE0001430006840F001000F49143108600223EC
:101DF00013220021012004F083FF0B4814300068F7
:101E000040F0020008491431086002231422002126
:101E1000012004F075FF002019E700000C0647427E
:101E2000000C024064084742006400400066004025
:101E3000014621B90748006800F0030070470129F6
:101E400005D10448001D006800F00300F6E70020FB
:101E5000F4E700000C64004000B500F007F8012032
:101E60000149487400BD00007C1E00200FB5002011
:101E7000FFF7DEFF10B9002004B000BD0648411E88
:101E800002AB03AACDE90010411F002000F006F8C4
:101E900001481938007EEFE7951E0020F0B5DDE916
:101EA0000554324E06EB0016366806F0040616702E
:101EB000167836B92D4E06EB00163668760D0E6094
:101EC00005E02A4E06EB00163668F6080E60274E2F
:101ED00006EB0016366806F002061E70234E06EB6F
:101EE0000016766806F00F062E70204E06EB0016E0
:101EF000B66826701D4E06EB0016B668360A667088
:101F00001A4E06EB0016B668360CA670174E06EB96
:101F10000016B668360EE670144E06EB0016F6682C
:101F20002671124E06EB0016F668360A66710F4EE1
:101F300006EB0016F668360CA6710C4E06EB001682
:101F4000F668360EE67130B9094E366846F020065E
:101F5000074F3E6009E0012807D1054E361D36685F
:101F600046F02006024F3F1D3E60F0BDB0650040C8
:101F70000C6400401248006800F0010028B11048CD
:101F8000006840F001000E4908600D48006800F448
:101F9000807028B10A48006840F4807008490860E1
:101FA0000748006800F4803028B10548006840F414
:101FB0008030034908600020024908607047000033
:101FC000086400407C1E002070B586B004460025E1
:101FD00008E00021FE4800EBC410643040F82510F2
:101FE000681CC5B2072DF4DB204608F01DFAF8493D
:101FF00001EBC4118865F64800EBC4100078002896
:102000007ED1F34800EBC410C069002877D0F048B7
:1020100000EBC410006A002871D0ED4800EBC4103A
:10202000C068EB4901EBC4118968401A00EE100A40
:10203000B8EE400ADFEDE70A60EE200AE44800EB64
:10204000C41090ED070AB8EE400A80EE801ABCEE8C
:10205000C10ADF4800EBC41080ED050ADC4800EB44
:10206000C4104369DA4800EBC410C268D84800EBDA
:10207000C410816802A802F003F8DDE90201CDE98D
:102080000401D34800EBC41005998166D04800EBE9
:10209000C410C168CE4800EBC4100069081A00EEF5
:1020A000100AB8EE400ADFEDCB0A60EE200AC848FD
:1020B00000EBC41090ED080AB8EE400A80EE801ADA
:1020C000BCEEC10AC24800EBC41080ED060AC0484D
:1020D00000EBC4108369BE4800EBC4100269BC4821
:1020E00000EBC410C16802A802F05CFBDDE902014C
:1020F000CDE90401B64800EBC4100599816700E002
:10210000A2E0B34800EBC410816EB14800EBC410EC
:10211000806F0144AE4800EBC410806D814212D83C
:10212000AB4800EBC410816DA94800EBC410806E71
:10213000091AA74800EBC410806F091AA44800EBE5
:10214000C410016764E2A24800EBC41090ED160AC7
:10215000B8EE400ADFEDA00A60EE200A9C4800EBD2
:10216000C41090ED070AB8EE400A60EE800A984865
:1021700000EBC410C169964800EBC410006A084423
:1021800000EE100AB8EE400A80EE801ABCEEC10ADA
:1021900010EE106A8E4800EBC41042698C4800EBC8
:1021A000C4103346816802A808F0ACFADDE90201E8
:1021B000CDE90401864800EBC4100499C16084484D
:1021C00000EBC41005998166814800EBC410836957
:1021D0007F4800EBC41002697D4800EBC410C16861
:1021E00002A802F0DFFADDE90201CDE90401784836
:1021F00000EBC41005998167754800EBC410816E2F
:10220000734800EBC410806F0144714800EBC410A8
:10221000806D814212D86E4800EBC410816D6C480D
:1022200000EBC410806E091A694800EBC410806F7F
:10223000091A674800EBC41001679BE3002164485A
:1022400000EBC410016795E3614800EBC41000780F
:102250000128F2D15E4800EBC410C0690028ECD020
:102260005B4800EBC410006A0028E6D0584800EB39
:10227000C41090ED070AB8EE400ADFED580A20EED0
:10228000200ADFED540A80EE201A514800EBC410FA
:1022900080ED091A4E4800EBC410C0684C4901EBB0
:1022A000C4118968401A00EE100AB8EE400ADFED4A
:1022B000490A60EE200A464800EBC41090ED070A78
:1022C000B8EE400A9FED461A20EE010A80EE801A11
:1022D000BDEEC10A3E4800EBC41080ED050A3C4843
:1022E00000EBC41090ED050AB8EE400A384800EB48
:1022F000C410D0ED090A9FED371A20EE811AC0EE06
:10230000010AB6EE000A30EE800ABDEEC00A30487F
:1023100000EBC41080ED0B0A2D4800EBC41090EDCB
:10232000080AB8EE400ADFED2D0A20EE200ADFEDA4
:10233000290A80EE201A264800EBC41080ED0A1A04
:10234000234800EBC410C168214800EBC4100069A9
:10235000081A00EE100AB8EE400ADFED1E0A60EE21
:10236000200A1B4800EBC41090ED080AB8EE400AA2
:102370009FED1B1A20EE010A80EE801ABDEEC10A05
:10238000134800EBC41080ED060A114800EBC4109E
:1023900090ED060AB8EE400A0D4800EBC410D0EDEF
:1023A0000A0A9FED0C1A20EE811AC0EE010AB6EE61
:1023B000000A30EE800ABDEEC00A054800EBC410EA
:1023C00080ED0C0A024800EBC410C36A004809E023
:1023D000E41E002000007A446666663FCDCCCC3E09
:1023E0009A99193F00EBC4104269FE4800EBC410F3
:1023F000816802A801F0C0FDDDE90201CDE9040118
:10240000F84800EBC4100499C163F64800EBC4100F
:1024100005994166F34800EBC410C068F14901EB2F
:10242000C41189680144EF4800EBC410C06B091A5D
:10243000EC4800EBC4100164EA4800EBC4104369A7
:10244000E84800EBC410026CE64800EBC410C16B16
:1024500002A801F031FFDDE90201CDE90401E14804
:1024600000EBC41004990164DE4800EBC410059928
:102470008166DC4800EBC410C06A0090D94800EBCC
:10248000C4104369D74800EBC410C268D54800EBBC
:10249000C410016C02A801F0C3FCDDE90201CDE922
:1024A0000401D04800EBC4100599C166CD4800EB8B
:1024B000C410036BCB4800EBC4108269C94800EB21
:1024C000C410C16802A802F0C3F8DDE90201CDE939
:1024D0000401C44800EBC41004994164C14800EBF6
:1024E000C41005994167BF4800EBC410C168BD48DE
:1024F00000EBC41000690144BA4800EBC410406C02
:10250000091AB84800EBC4108164B64800EBC41047
:102510008369B44800EBC410826CB24800EBC4106D
:10252000416C02A802F0A0FADDE90201CDE9040144
:10253000AC4800EBC41004998164AA4800EBC410B5
:1025400005998167A74800EBC410006B0090A5486F
:1025500000EBC4108369A34800EBC4100269A148D2
:1025600000EBC410816C02A801F0B4FFDDE90201A8
:10257000CDE904019B4800EBC4100599C167994857
:1025800000EBC410416E974800EBC410806E01440C
:10259000944800EBC410C06E0144924800EBC41094
:1025A000406F01448F4800EBC410806F01448D4898
:1025B00000EBC410C06F01448A4800EBC410806D6A
:1025C000814226D2874800EBC410416E854800EB5B
:1025D000C410806E0144834800EBC410C06E0144F7
:1025E000804800EBC410406F01447E4800EBC410EB
:1025F000806F01447B4800EBC410C06F01447948F0
:1026000000EBC410806D411A764800EBC4100167DE
:10261000B0E10021734800EBC4108166714800EB03
:10262000C41081676F4800EBC410806D6D4901EBE9
:10263000C411C96948436B4901EBC411CA696949AE
:1026400001EBC411096A1144B0FBF1F005909DED56
:10265000050AB8EE400A5FEDA10A60EE200A614863
:1026600000EBC41090ED070AB8EE401A80EE810A24
:10267000F6EE000A30EE200ABDEEC00A10EE100A97
:10268000584901EBC4118968884208D2554800EBCB
:10269000C4108168534800EBC410C16024E09DED74
:1026A000050AB8EE400ADFED500A60EE200A4D48F8
:1026B00000EBC41090ED070AB8EE400A80EE801AD5
:1026C000484800EBC41090ED020AB8EE400A31EE23
:1026D000400AF6EE000A30EE200ABDEEC00A41487C
:1026E00000EBC41080ED030A3E4800EBC410C06844
:1026F0003C4901EBC4118968884212D1002508E0E9
:102700000021384800EBC410643040F82510681CE4
:10271000C5B2072DF4DB0021324800EBC41001677D
:1027200028E1304800EBC410C0682E4901EBC41109
:102730008968401A00EE100AB8EE400ADFED2B0A55
:1027400060EE200A274800EBC41090ED070AB8EEAF
:10275000400A80EE801ABCEEC10A224800EBC41089
:1027600080ED0B0A1F4800EBC410C06A1D4901EB45
:10277000C411C969484341081A4800EBC4104161BB
:10278000184800EBC41090ED070AF8EE400A15480F
:1027900000EBC41090ED080AB8EE400A80EE801AF3
:1027A000104800EBC41090ED0B0AB8EE400A61EE41
:1027B000000A0C4800EBC41090ED070AB8EE401A6E
:1027C000084800EBC41090ED080AB8EE400AC1EECC
:1027D000001A20EEA10ABCEEC00A024800EBC410A9
:1027E00006E00000E41E00200000FA440000C84398
:1027F00080ED0C0A604800EBC410006B5E4901EBF1
:10280000C411096A484341085B4800EBC410816168
:102810000021594800EBC4108166574800EBC410F2
:102820008167554800EBC410C36A534800EBC410DD
:102830004269514800EBC410816802A801F09CFB7A
:10284000DDE90201CDE904014B4800EBC410049915
:10285000C163494800EBC41005994166464800EB46
:10286000C410C06A0090444800EBC4104369424859
:1028700000EBC410C268404800EBC410C16B02A852
:1028800001F0CEFADDE90201CDE904013A4800EB9E
:10289000C4100599C166384800EBC410036B364874
:1028A00000EBC4108269344800EBC410C16802A870
:1028B00001F0CEFEDDE90201CDE904012E4800EB76
:1028C000C410049941642C4800EBC4100599416779
:1028D000294800EBC410006B0090274800EBC4109F
:1028E0008369254800EBC4100269234800EBC4103B
:1028F000416C02A801F0EEFDDDE90201CDE9040121
:102900001D4800EBC4100599C1671B4800EBC410BB
:10291000416E194800EBC410C06E0144164800EB2C
:10292000C410406F0144144800EBC410C06F014450
:10293000114800EBC410806D81421BD20E4800EBA1
:10294000C410416E0C4800EBC410C06E01440A482C
:1029500000EBC410406F0144074800EBC410C06F87
:102960000144054800EBC410806D411A024800EB99
:10297000C410016706B070BDE41E002038B50446DF
:10298000FA2C08D100200C230A22072100900120F4
:10299000FFF74EF913E0B4F57A7F08D10020032346
:1029A0000A22072100900120FFF742F907E00020EA
:1029B00006230A22072100900120FFF739F938BDCC
:1029C00010B52DED028B0446B0EE408AB0EE000A41
:1029D00068EE000A00EE104AB8EE400A80EE201AB7
:1029E000F0EE418AB0EE680A0EF0FAFAF0EE000A54
:1029F00020EE200ABDEC028B10BD000000224FF437
:102A0000803105E00A48006800F0800000B103E072
:102A10000800A1F10101F5D100BF09B903207047F9
:102A200040F2FF50024B1B1D18601046F7E70000F4
:102A3000342C0140024605E01548016801F04500CC
:102A400000B100E0F8E700BF01F0040028B1042065
:102A50000F4B1B1D18600320704701F0010020B1CF
:102A600001200B4B1B1D1860F6E70948243800684D
:102A7000904201D01020EFE740F2FF50044B1B1DA5
:102A8000186003482038006808231840C0B2E3E704
:102A9000342C014010B500204FF4803205E0164B75
:102AA000196801F0450303B103E01300A2F101022C
:102AB000F5D100BF12B101F004034BB103200E4B5E
:102AC0001B1D1B6843F004030B4C241D236010BD29
:102AD00001F0010343B10120074B1B1D1B6843F0AC
:102AE0000103054C241D236040F2FF53024C241DBA
:102AF000236000BFEBE70000342C014005E00E48E6
:102B0000016801F0450000B100E0F8E700BF01F006
:102B1000040048B10848001D006840F00400064A5F
:102B2000121D10600320704740F2FF50024A121D30
:102B300010600020F7E70000342C014070B5034618
:102B40000C46002505E02448026802F0450000B16B
:102B500000E0F8E700BF02F0040048B11E48001D85
:102B6000006840F004001C4E361D3060032070BD2C
:102B700002F0010048B11848001D006840F0010053
:102B8000154E361D30600120F1E7134824380068E7
:102B9000984201D01020EAE740F2FF500E4E361D59
:102BA00030600D482038016801F4604018B9080C05
:102BB00020802846DBE701F4005008B11320D6E757
:102BC00001F4804008B11020D1E701F4004008B1C1
:102BD0000F20CCE72846CAE7342C014010B500206E
:102BE0004FF4803205E0134B196801F0450303B13F
:102BF00003E01300A2F10102F5D100BF12B101F010
:102C000004034BB103200B4B1B1D1B6843F0040353
:102C1000084C241D236010BD01F0400343B1002087
:102C2000044B1B1D1B6843F04003024C241D236012
:102C300000BFF0E7342C01400CB50146534800EBCF
:102C4000C1108069B0F5FA6F05D24FF4FA624F48AF
:102C500000EBC11082614D4800EBC11090ED060AF7
:102C6000B8EE400AF6EE000A20EE200A9FED481A60
:102C7000C0EE010A454800EBC11090ED030AB8EE22
:102C8000400A30EE600AF6EE000A30EE200ABDEE91
:102C9000C00A8DED000A9DED000AB8EE400AF6EE7E
:102CA000000A60EE200A9FED3A1A80EE810AF6EEE5
:102CB000000A30EE200ABDEEC00A8DED010A43E0A5
:102CC000324800EBC11090ED060AB8EE400AF6EE6D
:102CD000000A20EE200A9FED2E1AC0EE010A9DED9B
:102CE000000AB8EE400A30EE600AF6EE000A30EE56
:102CF000200ABDEEC00A8DED000A244800EBC11089
:102D0000009A0069824203D30098B0F1E04F04D9E1
:102D10001E4800EBC110006900909DED000AB8EE5E
:102D2000400AF6EE000A60EE200A9FED191A80EEC6
:102D3000810AF6EE000A30EE200ABDEEC00A10EE5F
:102D4000100A019A10440190104800EBC11090ED58
:102D5000060AB8EE400AF6EE000A60EE200A9FED81
:102D60000D1A80EE810AF6EE000A30EE200ABDEE62
:102D7000C00A10EE100A054A02EBC1121269104493
:102D8000009A90429CD301980CBD0000E41E0020E4
:102D900000007A440000FA4410B50446204607F0CB
:102DA0002FFBFD4901EBC4114865FB4800EBC41043
:102DB000416DF94800EBC410806D814204D10020C0
:102DC000F54901EBC4114870F34800EBC4100078DA
:102DD00000287DD1F04800EBC4104078022804D0D0
:102DE000042876D0062875D1F1E0EB4800EBC4103A
:102DF000416DE94800EBC410006F0144E64800EB68
:102E0000C410806F0144E44800EBC410806D81421F
:102E100065D8E14800EBC410416DDF4800EBC410F9
:102E2000C06D81426DD3DC4800EBC41090ED050A03
:102E3000B8EE400AF6EE000A20EE200A9FEDD71AFF
:102E4000C0EE010AB6EE000A30EE800ABDEEC00AFE
:102E500010EE100AD04901EBC411C96C0844CE49E8
:102E600001EBC411C864CC4800EBC410C16CCA4863
:102E700000EBC410C068814204D2C74800EBC41004
:102E8000C06C03E0C44800EBC410C068C24901EB49
:102E9000C411C864C04800EBC41090ED130AB8EE2A
:102EA000400AF6EE000A60EE200A9FEDBC1A80EEA2
:102EB000810AF6EE000A30EE200ABDEEC00A10EEDE
:102EC000100AB54901EBC411C96D0144B24802E0D2
:102ED000E3E017E0E0E000EBC410C16511E0AE48AC
:102EE00000EBC410006F60B1AB4800EBC410C068C9
:102EF000A94901EBC411C8640420A74901EBC4111E
:102F00004870C9E0A44800EBC410416DA24800EB32
:102F1000C410806F0144A04800EBC410806D814252
:102F200054D39D4800EBC410816E9B4800EBC41045
:102F3000006F0144984800EBC410C165964800EB4F
:102F4000C41090ED060AB8EE400AF6EE000A20EE34
:102F5000200ADFED920A80EE201AB6EE000A71EE2A
:102F6000000A8D4800EBC41090ED130AB8EE400A39
:102F700030EE600ABDEEC00A874800EBC41080ED59
:102F8000130A854800EBC41090ED130AB8EE400A0E
:102F9000F6EE000A20EE200A9FED801AC0EE010A2C
:102FA000B6EE000A30EE800ABDEEC00A10EE100A3E
:102FB000794901EBC411C96D0144774800EBC41095
:102FC000C1650620744901EBC411487064E0724881
:102FD00000EBC410416D704800EBC410C06D81421D
:102FE00059D36D4800EBC41090ED060AB8EE400AC4
:102FF000F6EE000A20EE200ADFED680A80EE201AC5
:10300000B6EE000A71EE000A634800EBC41090EDC2
:10301000130AB8EE400A30EE600ABDEEC00A5E4800
:1030200000EBC41080ED130A5B4800EBC410C16CC8
:10303000594800EBC4100069814204D9564800EB9E
:10304000C410C06C03E0544800EBC410006952493E
:1030500001EBC411C864504800EBC41090ED130A92
:10306000B8EE400AF6EE000A20EE200ADFED4B0A29
:1030700080EE201AB6EE000A31EE000ABDEEC00A5C
:1030800010EE100A444901EBC411C96D01444248D5
:1030900000EBC410C16500BFFDE33F4800EBC41066
:1030A000407808287CD2DFE800F07B0483F8F7F64C
:1030B000F5F4394800EBC410416D374800EBC410FB
:1030C000406E81426ED2344800EBC410416D3248EC
:1030D00000EBC410C06D814269D32F4800EBC410CF
:1030E00090ED0D0AB8EE400AF6EE000A60EE200AF6
:1030F0009FED2A1A80EE810AF6EE000A30EE200AD1
:10310000BDEEC00A10EE100A234901EBC411C96CD0
:103110000844214901EBC411C8641F4800EBC410E6
:1031200090ED130AB8EE400AF6EE000A60EE200AAF
:103130009FED1A1A80EE810AF6EE000A30EE200AA0
:10314000BDEEC00A10EE100A134901EBC411C96D9F
:103150000144114800EBC410C1650F4800EBC410D6
:10316000416B0D4800EBC41090ED0B0AB8EE400A1D
:10317000F6EE000A60EE200AB7EE001AB6EE000A7C
:1031800000EE810ABDEEC00A10EE100A08440249A2
:1031900001EBC41148630AE0E41E002000007A44F9
:1031A000FEE3FFE70220FE4901EBC411487025E26F
:1031B000FB4800EBC410416EF94800EBC410806E70
:1031C0000844F74901EBC411496D884266D9F448B7
:1031D00000EBC410416DF24800EBC410C06D814299
:1031E00056D3EF4800EBC41090ED050AB8EE400A44
:1031F000F6EE000A20EE200A5FED180A80EE201A93
:10320000B6EE000A31EE000ABDEEC00A10EE100A5A
:10321000E34901EBC411C96C0844E14901EBC41155
:10322000C864DF4800EBC410C16CDD4800EBC4107B
:10323000C068814204D2DA4800EBC410C06C03E0DD
:10324000D74800EBC410C068D54901EBC411C8646D
:10325000D34800EBC41090ED130AB8EE400AF6EE26
:10326000000A20EE200A5FED330A80EE201AB6EE47
:10327000000A31EE000ABDEEC00A10EE100AC8497D
:1032800001EBC411C96D0144C54800EBC410C16510
:1032900059E0E6E243E2B2E1FEE055E0C04800EB6F
:1032A000C41090ED050AB8EE400ABD4800EBC4100A
:1032B000D0ED0B0AF8EE600AB6EE001A60EE810A55
:1032C000B7EE001A00EEC10AF6EE000A30EE200A50
:1032D000BDEEC00AB24800EBC41080ED0D0AB04844
:1032E00000EBC410806E08B3AD4800EBC41090ED45
:1032F000050AB8EE400AAA4800EBC410D0ED0B0A4C
:10330000F8EE600AB6EE001A60EE810AB7EE001A17
:1033100000EEC10AF6EE000A30EE200ABDEEC00A49
:103320009F4800EBC41080ED0D0A07E09C4800EBBD
:10333000C41040699A4901EBC411486303209849BD
:1033400001EBC411487079E3954800EBC410416E5D
:10335000934800EBC410806E0144914800EBC41008
:10336000C06E08448E4901EBC411496D88427DD975
:103370008B4800EBC410416D894800EBC410C06D50
:10338000814274D3864800EBC41090ED0D0AB8EE6C
:10339000400AF6EE000A60EE200A1FED801A80EE69
:1033A000810AF6EE000A30EE200ABDEEC00A10EEE9
:1033B000100A7B4901EBC411C96C0844784901EB40
:1033C000C411C864764800EBC410C16C744800EBAB
:1033D000C410C068814204D2714800EBC410C06CB4
:1033E00003E06F4800EBC410C0686D4901EBC411E5
:1033F000C8646B4800EBC41090ED130AB8EE400AA5
:10340000F6EE000A60EE200A1FED9C1A80EE810A9B
:10341000F6EE000A30EE200ABDEEC00A10EE100AE9
:103420005F4901EBC411C96D01445D4800EBC41054
:10343000C1655B4800EBC41090ED0D0AB8EE400A80
:10344000574800EBC410D0ED0B0AF8EE600AB6EE58
:10345000001A60EE810AB7EE001A00EEC10AF6EE1D
:10346000000A30EE200ABDEEC00A01E006E012E0DC
:103470004B4800EBC41080ED0D0A0CE0484800EB0F
:10348000C410C068464901EBC411C8640420444913
:1034900001EBC4114870D1E2414800EBC410416E09
:1034A0003F4800EBC410806E01443D4800EBC4105F
:1034B000C06E01443A4800EBC410006F084438491C
:1034C00001EBC411496D88426CD8354800EBC4103B
:1034D000416E334800EBC410806E0144304800EB6D
:1034E000C410C06E01442E4800EBC410006F0144AC
:1034F0002B4800EBC410C165294800EBC41090EDC7
:103500000C0AB8EE400AF6EE000A60EE200AB7EEAA
:10351000001AB6EE000A00EE810ABDEEC00A20488D
:1035200000EBC41080ED0E0A1D4800EBC41090EDB6
:103530000E0AB8EE400AF6EE000A20EE200A1FED51
:10354000E91AC0EE010A164800EBC41090ED130A08
:10355000B8EE400A30EE600AF6EE000A30EE200ABD
:10356000BDEEC00A0E4800EBC41080ED130A0C48F3
:1035700000EBC41090ED130AB8EE400AF6EE000A14
:1035800060EE200A1FEDFB1A80EE810AF6EE000ABB
:1035900030EE200ABDEEC00A10EE100A004902E02B
:1035A000E41E00202AE001EBC411C96D0144FD486E
:1035B00000EBC410C165FB4800EBC410816BF948F7
:1035C00000EBC41090ED0C0AB8EE400AF6EE000ACB
:1035D00060EE200AB7EE001AB6EE000A00EE810A8D
:1035E000BDEEC00A10EE100A0144EE4800EBC41014
:1035F00081630520EB4901EBC41148701EE2E948E4
:1036000000EBC410416EE74800EBC410806E01442B
:10361000E44800EBC410C06E0144E24800EBC41063
:10362000006F0144DF4800EBC410406F0844DD49DF
:1036300001EBC411496D88426BD9DA4800EBC41024
:10364000416DD84800EBC410C06D814266D3D548A7
:1036500000EBC41090ED0E0AB8EE400AF6EE000A38
:1036600020EE200A9FEDD01AC0EE010ACD4800EBF3
:10367000C41090ED130AB8EE400A30EE600AF6EE80
:10368000000A30EE200ABDEEC00AC64800EBC410A6
:1036900080ED130AC34800EBC41090ED130AB8EE96
:1036A000400AF6EE000A60EE200A9FEDBF1A80EE97
:1036B000810AF6EE000A30EE200ABDEEC00A10EED6
:1036C000100AB84901EBC411C96D0144B54800EBBB
:1036D000C410C165B34800EBC410816BB14800EB66
:1036E000C41090ED0C0AB8EE400AF6EE000A60EE47
:1036F000200AB7EE001AB6EE000A00EE810ABDEE0F
:10370000C00A10EE100A0144A64800EBC410816301
:1037100004E00620A34901EBC41148708EE1A148E2
:1037200000EBC410416E9F4800EBC410806E014452
:103730009C4800EBC410C06E01449A4800EBC410D2
:10374000006F0144974800EBC410406F0144954856
:1037500000EBC410806F0844924901EBC411496D1D
:1037600088424DD98F4800EBC410416D8D4800EB65
:10377000C410C06D814273D38A4800EBC41090ED31
:10378000060AB8EE400AF6EE000A20EE200A9FED87
:10379000861AC0EE010A834800EBC41090ED130AAC
:1037A000B8EE400A30EE600AF6EE000A30EE200A6B
:1037B000BDEEC00A7B4800EBC41080ED130A7948C7
:1037C00000EBC41090ED130AB8EE400AF6EE000AC2
:1037D00060EE200A9FED741A80EE810AF6EE000A70
:1037E00030EE200ABDEEC00A10EE100A6D4901EB62
:1037F000C411C96D01446B4800EBC410C1652FE0D2
:10380000684800EBC410806FE8B1664800EBC41054
:1038100090ED060AB8EE400A624800EBC410D0ED05
:103820000C0AF8EE600AB6EE001A00EEC10AF6EED7
:10383000000A30EE200ABDEEC00A5A4800EBC41060
:1038400080ED0E0A07E0574800EBC4108169554827
:1038500000EBC41081630720524901EBC41148708A
:10386000ECE0504800EBC410416E4E4800EBC41031
:10387000806E01444B4800EBC410C06E01444948BF
:1038800000EBC410006F0144464800EBC410406FC9
:103890000144444800E0D2E000EBC410806F0144D2
:1038A000404800EBC410C06F08443E4901EBC4110E
:1038B000496D884275D93B4800EBC410416D3948C9
:1038C00000EBC410C06D81426BD3364800EBC410CE
:1038D00090ED0E0AB8EE400AF6EE000A20EE200A3D
:1038E0009FED311AC0EE010A2E4800EBC41090ED96
:1038F000130AB8EE400A30EE600AF6EE000A30EE27
:10390000200ABDEEC00A274800EBC41080ED130A60
:10391000244800EBC410C06CB0F1E04F04D2214841
:1039200000EBC410C06C03E01E4800EBC41000693B
:103930001C4901EBC411C8641A4800EBC410C16CE7
:10394000184800EBC4100069814204D9154800EB07
:10395000C410C06C03E0134800EBC41000691149A7
:1039600001EBC411C8640F4800EBC41090ED130ABA
:10397000B8EE400AF6EE000A60EE200A9FED0A1A41
:1039800080EE810AF6EE000A30EE200ABDEEC00A93
:1039900010EE100A034901EBC411C96D014405E0A2
:1039A0004BE049E0E41E002000007A44264800EB8A
:1039B000C410C165244800EBC410816B224800EBA1
:1039C000C41090ED0C0AB8EE400AF6EE000A60EE64
:1039D000200AB7EE001AB6EE000A00EE810ABDEE2C
:1039E000C00A10EE100A814221D9174800EBC4101A
:1039F00090ED0E0AB8EE400A134800EBC410D0ED6B
:103A00000C0AF8EE600AB6EE001A60EE810AB7EE14
:103A1000001A00EEC10AF6EE000A30EE200ABDEEF2
:103A2000C00A094800EBC41080ED0E0A04E0002132
:103A3000054800EBC410816300E000BF00BF0248EE
:103A400000EBC410C06C10BDE41E00202DE9F05F37
:103A500004460E4615461F46DDE90CABDDE90A8932
:103A6000164800EBC4100670144800EBC4108560C3
:103A7000124800EBC410C564104800EBC410C760C6
:103A80000E4800EBC410C0F810800C4800EBC410C6
:103A9000C0F85890094800EBC410C0F81CA00748B3
:103AA00000EBC410C0F820B02046FEF78DFA204687
:103AB00008F0E8FD0020BDE8F09F0000E41E0020B3
:103AC0000748006800F0006040B10548806840F099
:103AD00000600349886000200249086370470000C5
:103AE00000600240E40000200748406800F0200029
:103AF00040B10548C06840F020000349C86000207C
:103B0000024908607047000000600240E4000020A5
:103B10000548406800F4001028B10348C06840F42C
:103B200000100149C86070470060024005484068C5
:103B300000F0006028B10348C06840F0006001490F
:103B4000C8607047006002400648006800F400103A
:103B500038B104480830006840F4001001490831C9
:103B600008607047046402400848006800F0006084
:103B700050B106480830006840F000600349083141
:103B80000860002002490860704700000464024099
:103B9000E40000201CB501202B4908802B49088037
:103BA000002000900346032210210190284801F0D4
:103BB000BDFF01202449088024490880002000908E
:103BC0000346032220210190214801F0AFFF214844
:103BD000006840F001001F4908600846006840F096
:103BE000020008600846006808600846006808602F
:103BF00008460068086008460068086008460068D3
:103C00000860C8141349083108601248006840F47D
:103C10008030104908600846006840F400300860B1
:103C200008460068086008460068086008460068A2
:103C30000860084600680860084600680860C81404
:103C40000449143108601CBD74084742000647420D
:103C500000000240007400400246082A05DA0448C9
:103C600050F822000180002070474FF0FF30FBE742
:103C7000680200203CB500919DED000AB8EE400AB4
:103C8000F0EE000A20EE200ADFED2E0A80EE201A68
:103C9000B6EE000A31EE000ABDEEC00A8DED010A53
:103CA0002DE000EE102AB8EE400AF0EE000A60EEB9
:103CB000200A9FED241A80EE810AF6EE000A30EE0B
:103CC000200ABDEEC00A10EE104A009D2C4400945C
:103CD0009DED000AB8EE400AF0EE000A20EE200A40
:103CE0009FED181AC0EE010AB6EE000A30EE800A07
:103CF000BDEEC00A10EE104A019D2C440194019CB7
:103D00009C42CED39DED000AB8EE400AF0EE000AC8
:103D100020EE200A9FED0B1AC0EE010A9DED010A6C
:103D2000B8EE400A30EE600AF6EE000A30EE200AE5
:103D3000BDEEC00A8DED010ADDE90045C0E9004590
:103D40003CBD000000007A443CB500919DED000AA6
:103D5000B8EE400AF0EE000A20EE200ADFED2F0A4E
:103D600080EE201AB6EE000A31EE000ABDEEC00A5F
:103D70008DED010A13B9002401944AE02DE000EE14
:103D8000103AB8EE400AF0EE000A20EE200A9FED4D
:103D9000231AC0EE010AB6EE000A30EE800ABDEE2C
:103DA000C00A10EE104A009D2C4400949DED000ABC
:103DB000B8EE400AF0EE000A20EE200ADFED170A06
:103DC00080EE201AB6EE000A31EE000ABDEEC00AFF
:103DD00010EE104A019D2C44019400EE103AB8EE0A
:103DE000400AF7EE080A20EE200AF0EE000A20EE64
:103DF000200ADFED0A0A80EE201AB6EE000A31EE44
:103E0000000ABDEEC00A10EE104A009D2C449442F8
:103E1000B5D3DDE90045C0E900453CBD00007A446A
:103E20007CB504469DED060A00EE903AF8EE600A75
:103E3000B8EE401AF6EE001A41EE610AB6EE001A2C
:103E400070EE810AFDEEE00A10EE900A00EE900A94
:103E5000F8EEE00AB6EE001A20EE811ADFED451A00
:103E6000C1EE210AB6EE001A70EE810AFDEEE00AFC
:103E700010EE905A0D440095DDED000AF8EE600A50
:103E8000B6EE001A60EE810A9FED3A1AC0EE811A72
:103E9000F6EE000A71EEA00AFDEEE00ACDED010A91
:103EA00000EE900AF8EEE00AB8EE401AF6EE001ABC
:103EB00041EE610AB6EE001A70EE810AFDEEE00AEC
:103EC00010EE900A3FE000EE900AF8EEE00AB6EE3F
:103ED000001A60EE810ADFED271A80EEA11AF6EED5
:103EE000000A71EE200AFDEEE00A10EE905A009EE4
:103EF00035440095DDED000AF8EE600AB6EE001AD2
:103F000020EE811ADFED1B1AC1EE210AB6EE001A6F
:103F100070EE810AFDEEE00A10EE905A019E3544E3
:103F2000019500EE900AF8EEE00AB8EE401AF6EEBF
:103F3000001A41EE610AB6EE001A70EE810AFDEE3B
:103F4000E00A10EE900AF8EE400AB7EE081A20EEEA
:103F5000811AF6EE001AF6EE000A41EE210AFDEE95
:103F6000E00A10EE905A8542ADDBDDE90056C4E967
:103F700000567CBD00007A447CB5044600919DED5E
:103F8000000AB8EE400AF6EE000A20EE200A9FED85
:103F90003B1AC0EE010AB6EE000A30EE800ABDEE12
:103FA000C00A8DED010A00EE103AF8EE400AB6EEB6
:103FB000001AB6EE000A00EE810ABDEEC00A10EE4D
:103FC000100A40E000EE100AB8EE400AF6EE000AD1
:103FD00020EE200A9FED291AC0EE010AB6EE000A73
:103FE00030EE800ABDEEC00A10EE105A009E354435
:103FF00000959DED000AB8EE400AF6EE000A20EEAC
:10400000200A9FED1E1AC0EE010AB6EE000A30EE3D
:10401000800ABDEEC00A10EE105A019E354401958B
:1040200000EE103AB8EE400AF6EE000A60EE200A02
:10403000B7EE001AB6EE000A00EE810ABDEEC00A25
:1040400010EE105A284400EE103AB8EE400AF6EE90
:10405000000A60EE200AB6EE001AB6EE000A00EE84
:10406000810ABDEEC00A10EE105A05449542A9D34C
:10407000DDE90056C4E900567CBD000000007A442A
:104080003CB500919DED000AB8EE400AF6EE000A3C
:1040900020EE200A9FED341AC0EE010AB6EE000AA7
:1040A00030EE800ABDEEC00A8DED010A00EE103A36
:1040B000B8EE400ADFED2D0AB4EEE00AF1EE10FA98
:1040C0004BDD2DE000EE103AB8EE400AF6EE000AA5
:1040D00020EE200ADFED240A80EE201AB6EE000A58
:1040E00031EE000ABDEEC00A10EE104A009D2C44CD
:1040F00000949DED000AB8EE400AF6EE000A20EEAC
:10410000200ADFED190A80EE201AB6EE000A31EE21
:10411000000ABDEEC00A10EE104A019D2C44019425
:1041200000EE103AB8EE400AF7EE080A20EE200A38
:10413000F6EE000A20EE200ADFED0B0A80EE201AD0
:10414000B6EE000A31EE000ABDEEC00A10EE104ACB
:10415000009D2C449442B5D301E000240194DDE994
:104160000045C0E900453CBD00007A440000FA4427
:10417000F0B52DED028B83B007460D4616461C4662
:10418000B0EE408A01959DED010AB8EE400AF0EECE
:10419000000A20EE200ADFED460A80EE201AB6EE75
:1041A000000A31EE000ABDEEC00A8DED020AB0EE43
:1041B000480A0298FEF704FC8DED000AECB300EE0D
:1041C000104AB8EE400AF0EE000A20EE200ADFEDB9
:1041D000380A80EE201AB7EE000AB4EEC01AF1EEEB
:1041E00010FA57DDB54255D237E000EE104AB8EE6E
:1041F000400AF0EE000A20EE200A9FED2D1AC0EED4
:10420000010AB6EE000A30EE800ABDEEC00A10EEDA
:10421000100A0199084401909DED010AB8EE400A88
:10422000F0EE000A20EE200ADFED210A80EE201ACF
:10423000B6EE000A31EE000A00E02BE0BDEEC00A47
:104240008DED020AB0EE480A0298FEF7B9FBDDEDEB
:10425000000A30EE200A8DED000A00EE104AB8EE9A
:10426000400AF7EE080A20EE200AF0EE000A20EEDF
:10427000200ADFED0F0A80EE201AB6EE000A31EEBA
:10428000000ABDEEC00A10EE100A01990844B042BF
:10429000ABD304E001959FED070A8DED000A9DE880
:1042A000070087E8070003B0BDEC028BF0BD0000FB
:1042B00000007A44000000003CB500EE103AB8EE71
:1042C000400AF6EE000A20EE200ADFED370A80EE03
:1042D000201AB6EE000A31EE000ABDEEC00A10EE5A
:1042E000104A0C4400949DED000AB8EE400AF6EE28
:1042F000000A20EE200ADFED2C0A80EE201AB6EE2E
:10430000000A31EE000ABDEEC00A8DED010A2DE073
:1043100000EE103AB8EE400AF6EE000A20EE200A4F
:104320009FED211AC0EE010AB6EE000A30EE800AB7
:10433000BDEEC00A10EE104A009D2C4400949DED85
:10434000000AB8EE400AF6EE000A20EE200ADFED81
:10435000160A80EE201AB6EE000A31EE000ABDEE13
:10436000C00A10EE104A019D2C44019400EE103A50
:10437000B8EE400AF6EE000A20EE200A9FED0B1A76
:10438000C0EE010AB6EE000A30EE800ABDEEC00AA9
:1043900010EE104A009D2C449442B9D3DDE900454B
:1043A000C0E900453CBD000000007A440000FA442A
:1043B0003CB500EE103AB8EE400AF0EE000A20EEEE
:1043C000200A9FED431AC0EE010A00EE101AB8EE63
:1043D000400A30EE600AF6EE000A30EE200ABDEE2A
:1043E000C00A8DED000A9DED000AB8EE400AF0EE1D
:1043F000000A20EE200ADFED360A80EE201AB6EE23
:10440000000A31EE000ABDEEC00A8DED010A1BB9AB
:1044100000920024019455E038E000EE103AB8EE26
:10442000400AF0EE000A20EE200A9FED291AC0EEA5
:10443000010A9DED000AB8EE400A30EE600AF6EE81
:10444000000A30EE200ABDEEC00A8DED000A009C85
:10445000944203D3009CB4F1E04F00D900929DED4B
:10446000000AB8EE400AF0EE000A60EE200A9FED66
:10447000181A80EE810AF6EE000A30EE200ABDEE30
:10448000C00A10EE104A019D2C44019400EE103A2F
:10449000B8EE400AF0EE000A20EE200A9FED0C1A5A
:1044A000C0EE010AB0EE001A80EE810AF6EE000AB4
:1044B00030EE200ABDEEC00A10EE104A1444009DF2
:1044C000AC42AAD3DDE90045C0E900453CBD00008F
:1044D00000007A447CB504469DED060A00EE903A51
:1044E000F8EE600AB8EE401AF6EE001A41EE610AE4
:1044F000B6EE001A70EE810AFDEEE00A10EE900AA8
:1045000000EE900AF8EE600AB6EE001A60EE810A3C
:10451000DFED4E1A80EEA11A00EE901AF8EE600A56
:1045200070EEC10AB6EE001A70EE810AFDEEE00AE6
:10453000CDED000ADDED000AF8EE600AB6EE001AD5
:1045400060EE810A9FED411AC0EE811AF6EE000A74
:1045500071EEA00AFDEEE00ACDED010A00EE900A30
:10456000F8EE600AB8EE401AF6EE001A41EE610A63
:10457000B6EE001A70EE810AFDEEE00A10EE900A27
:104580004AE000EE900AF8EE600AB6EE001A60EE1D
:10459000810ADFED2E1A80EEA11ADDED000AF8EE99
:1045A000600A70EEC10AB6EE001A70EE810AFDEEE6
:1045B000E00ACDED000A009D954203D3009DB5F1C0
:1045C000E06F00D90092DDED000AF8EE600AB6EE69
:1045D000001A60EE810A9FED1D1AC0EE811AF6EEF8
:1045E000000A71EEA00AFDEEE00A10EE905A019E5C
:1045F0003544019500EE900AF8EE600AB8EE401AD4
:10460000F6EE001A41EE610AB6EE001A70EE810A6B
:10461000FDEEE00A10EE900AF8EE400AB6EE001A3F
:1046200060EE810AB0EE001AC0EE811AF6EE000AC2
:1046300071EEA00AFDEEE00A10EE905A8542A0D37A
:10464000DDE90056C4E900567CBD000000007A4454
:104650007CB5044600EE103AF8EE400AB6EE001AB9
:10466000B6EE000A00EE810ABDEEC00A10EE100A96
:1046700000EE100AB8EE400AF6EE000A20EE200A1C
:104680009FED471AC0EE010A00EE101AB8EE400A7C
:1046900030EE600AF6EE000A30EE200ABDEEC00AE7
:1046A0008DED000A9DED000AB8EE400AF6EE000A14
:1046B00020EE200ADFED3A0A80EE201AB6EE000A5C
:1046C00031EE000ABDEEC00A8DED010A00EE103A8F
:1046D000F8EE400AB6EE001AB6EE000A00EE810AC5
:1046E000BDEEC00A10EE105A28443FE000EE100A5A
:1046F000B8EE400AF6EE000A20EE200A9FED281AD6
:10470000C0EE010A9DED000AB8EE400A30EE600AE4
:10471000F6EE000A30EE200ABDEEC00A8DED000A6A
:104720009DED000AB8EE400AF6EE000A60EE200A9F
:104730009FED1B1A80EE810AF6EE000A30EE200A89
:10474000BDEEC00A10EE105A019E3544019500EEF0
:10475000103AF8EE400AB6EE001AB6EE000A00EE85
:10476000810ABDEEC00A10EE105A284400EE103A3D
:10477000B8EE400AF6EE000A60EE200AB6EE001A25
:10478000B6EE000A00EE810ABDEEC00A10EE105A25
:1047900005449542AAD3DDE90056C4E900567CBD24
:1047A00000007A443CB500EE103AB8EE400AF6EE4E
:1047B000000A20EE200A9FED461AC0EE010A00EE24
:1047C000101AB8EE400A30EE600AF6EE000A30EE3B
:1047D000200ABDEEC00A8DED000A9DED000AB8EE7C
:1047E000400AF6EE000A20EE200ADFED390A80EEDC
:1047F000201AB6EE000A31EE000ABDEEC00A8DEDB9
:10480000010A00EE103AB8EE400ADFED320AB4EECB
:10481000E00AF1EE10FA52DD38E000EE103AB8EEA0
:10482000400AF6EE000A20EE200A9FED291AC0EE9B
:10483000010A9DED000AB8EE400A30EE600AF6EE7D
:10484000000A30EE200ABDEEC00A8DED000A009C81
:10485000944203D3009CB4F1E04F00D900929DED47
:10486000000AB8EE400AF6EE000A20EE200A9FED9C
:10487000181AC0EE010AB6EE000A30EE800ABDEE4C
:10488000C00A10EE104A019D2C44019400EE103A2B
:10489000B8EE400AF6EE000A20EE200A9FED0D1A4F
:1048A000C0EE010AB6EE000A30EE800ABDEEC00A84
:1048B00010EE104A1444009DAC42AED302E00092C8
:1048C00000240194DDE90045C0E900453CBD00003D
:1048D00000007A440000FA44F0B52DED028B83B05D
:1048E00007460E4615461C46B0EE408A00EE104ABA
:1048F000B8EE400AF0EE000A20EE200A9FED581AAA
:10490000C0EE010A00EE106AB8EE400A30EE600A0E
:10491000F6EE000A30EE200ABDEEC00A8DED010A67
:104920009DED010AB8EE400AF0EE000A20EE200AE2
:10493000DFED4B0A80EE201AB6EE000A31EE000AD7
:10494000BDEEC00A8DED020AB0EE480A0298FEF7ED
:1049500037F88DED000A002C74D000EE104AB8EE46
:10496000400AF0EE000A20EE200A9FED3D1AC0EE4C
:10497000010AB7EE000AF4EEC00AF1EE10FA61DDAA
:10498000B5425FD240E000EE104AB8EE400AF0EEC9
:10499000000A20EE200A9FED321AC0EE010A9DEDBA
:1049A000010AB8EE400A30EE600AF6EE000A30EE78
:1049B000200ABDEEC00A8DED010A0198A84203D37A
:1049C0000198B0F1E04F00D901959DED010AB8EED4
:1049D000400AF0EE000A60EE200A9FED211A80EEF8
:1049E000810AF6EE000A30EE200ABDEEC00A8DED17
:1049F000020AB0EE480A0298FDF7E2FFDDED000A78
:104A000030EE200A8DED000A00EE104AB8EE400AA2
:104A1000F0EE000A60EE200A9FED111A80EE810A86
:104A2000B0EE001AC0EE010AB6EE000A30EE800ABF
:104A3000BDEEC00A10EE100A284401998842A2D3A4
:104A400005E0FFE701959FED070A8DED000A9DE85F
:104A5000070087E8070003B0BDEC028BF0BD000043
:104A600000007A44000000003CB500EE103AB8EEB9
:104A7000400AF6EE000A20EE200A9FED3D1AC0EE35
:104A8000010A00EE101AB8EE400A30EE600AF6EEA7
:104A9000000A30EE200ABDEEC00A8DED000A9DED41
:104AA000000AB8EE400AF6EE000A20EE200ADFED1A
:104AB000300A80EE201AB6EE000A31EE000ABDEE92
:104AC000C00A8DED010A30E000EE103AB8EE400A5F
:104AD000F6EE000A20EE200A9FED251AC0EE010A2C
:104AE0009DED000AB8EE400A30EE600AF6EE000ACC
:104AF00030EE200ABDEEC00A8DED000A9DED000AE1
:104B0000B8EE400AF6EE000A20EE200A9FED181AD1
:104B1000C0EE010AB6EE000A30EE800ABDEEC00A11
:104B200010EE104A019D2C44019400EE103AB8EEAC
:104B3000400AF6EE000A20EE200A9FED0E1AC0EEA3
:104B4000010A00EE102AB8EE400A30EE800AF6EEB6
:104B5000000A30EE200ABDEEC00A10EE104A009D99
:104B6000AC42B1D3DDE90045C0E900453CBD0000E1
:104B700000007A440000FA440146082904DA044897
:104B800050F82100008870474FF0FF30FBE700002D
:104B9000480200200246082A05DA044850F822009C
:104BA0000180002070474FF0FF30FBE748020020F3
:104BB00001494861704700000090024029B1064A4F
:104BC000D2690243044BDA6104E0034AD2698243AA
:104BD000014BDA61704700000090024030B1074994
:104BE000896941F00201054A916105E0034989693B
:104BF00021F00201014A91617047000000900240DB
:104C000070B50C4613460021124D286000BF18E015
:104C100000EB41124FF00045156044F2F455556029
:104C2000C1EBC11505EB450504EB850595605D1EDF
:104C30008D4204D900EB41152035D56000E0D060ED
:104C4000491C9942E4D3044DE860044D044E35609C
:104C500070BD0000C007002000900240C016012077
:104C6000C407002030B10749896941F40051054A61
:104C7000916105E00349896921F40051014A91617C
:104C8000704700000090024030B50C4613460021EA
:104C90000F4D286000BF15E000EB41124FF4801566
:104CA0001560C1EBC11505EB450504EB8505956065
:104CB0005D1E8D4204D900EB41152035D56000E022
:104CC000D060491C9942E7D3024D286130BD0000F5
:104CD000BC0700200090024002680A43026070474F
:104CE00010B50848006840F000700649086064206C
:104CF00000F00AF80348006820F0007001490860DD
:104D000010BD00001038024001B581B000200090B5
:104D10000198009002E00098401E00900098002842
:104D2000F9D10CBD0348806940F4801001498861C5
:104D3000704700000090024001480068806870479A
:104D4000BC07002001460868C0F30D40704700B55D
:104D500002460023106800F0004058B9106800F4C3
:104D6000004038B9106800F4807018B11046FFF7A1
:104D7000E9FF0346184600BD00200449096801F018
:104D8000010109B1012000E00020704700900240BD
:104D900010B501E010F0F4FB06480068FFF7D7FFFC
:104DA0000028F7D14020FFF703FF4FF48030FFF7D2
:104DB000FFFE10BDC00700202DE9FC4104460F4650
:104DC0004FF0000800BF0020019000BF0090804815
:104DD000056925F01C057F49D4F8BC0000FB01F6ED
:104DE0007D48864205D37D48864202D245F00805BB
:104DF0001AE07A48864205D37948864202D245F0C5
:104E00000C0511E07648864203D37648864200D2EC
:104E10000AE07448864205D37348864202D245F0C0
:104E2000040501E045F01005694805614FF40042B2
:104E30000021384600F0F8FA10B90020BDE8FC81E6
:104E40006A48FFF761FF206830B3002000904FF4FC
:104E500080520021384600F0E7FA08B90020EDE75B
:104E6000002000901F21384600F0B2F9804641F240
:104E7000580808F0100018B14FF40060206201E0FB
:104E80000020206208F0040010B10020606116E0EC
:104E90004FF48040606112E0206AC0F3CF00616986
:104EA000C1F34F0140EA01020021384600F0BCFA8C
:104EB00008B90020C2E76FF07F40FFF725FF4448A4
:104EC00005684B480540D4E901010843E1680843FF
:104ED0002169084361690843A1690843E1690843FE
:104EE000216A0843616A0843A16A0843E16A0843EA
:104EF000216B0843616B0843054335480560D4E9DD
:104F00000E010843216C0843616C0843A16C0843FF
:104F1000E16C0843216D0843616D08432C494860EA
:104F2000A06D8860E06DC860084685694FF64170E5
:104F30000540B4F86010606E40EA0140A16E08437D
:104F4000E16E0843216F0843616F08430543204821
:104F50008561D4E91E0108431D49C861254885695A
:104F600025480540D4E920010843D4F888100843B7
:104F7000D4F88C100843D4F890100843D4F8941057
:104F80000843D4F898100843D4F89C100843D4F888
:104F9000A0100843054317488561D4E92901084357
:104FA000D4F8AC100843D4F8B0100843D4F8B410C7
:104FB00040EA8100D4F8B810084340F400000D49DD
:104FC00008600846006840F080000860012035E76E
:104FD0000080024040420F00002D3101C00E160239
:104FE0000087930300E1F50580D1F008FFFF0F0073
:104FF0000F8120FF00900240233FDEF810B50B79AF
:105000004C7943EA0422094B03441A64CB781B060B
:105010008C7843EA04434C7843EA04230C7843EA4F
:105020000402024B03445A6410BD00000080024099
:1050300010B5B0B02248006840F0606020490860B8
:10504000FFF74EFE00F048F900BFFFF795FE01287C
:10505000FBD0684600F05AF901200090002007902C
:105060004FF400700A9000200B900E901190139056
:105070001490159020904FF0007021900011239013
:1050800000202590269004202890C00529904012E9
:105090002A9080012B9040122C9040002E90A82046
:1050A0002F9000216846FFF787FEC4B2012C03D180
:1050B00001210448FFF782FD204630B010BD0000FA
:1050C000303802404000010030B10749096841F022
:1050D0000401054A116005E00349096821F0040153
:1050E000014A1160704700000080024030B107495A
:1050F000096841F00801054A116005E003490968A3
:1051000021F00801014A1160704700000080024050
:1051100010B50F480168002010F0ACFF0D48016881
:10512000002010F0A7FF0C480168002010F0A2FF3B
:105130000A480168002010F09DFF00200449086023
:1051400004490860044908600449086010BD000073
:10515000180700201C07002020070020240700203B
:1051600010B5FFF7D5FFA021002010F095FF1449DE
:105170000860A021002010F08FFF1249086041F65E
:10518000C451002010F088FF0F49086041F6C45157
:10519000002010F081FF0D4908600948006840B107
:1051A0000848006828B10848006810B1084600683F
:1051B00018B9FFF7ADFF012010BD0020FCE700008B
:1051C000180700201C0700202007002024070020CB
:1051D00018B502460B4600210020009015480169D1
:1051E00001F01C014FF4784000EAC22001434FF463
:1051F000F86000EA8310014321F0020141F001014F
:105200000C48016100BF0098401C009009480169EA
:1052100001F0010018B1084C0098A042F3D3064CED
:105220000098A04201D1002018BD0248406980B218
:10523000FAE7000000800240FFFF04001EB50021D5
:105240000022009201920292214A1268126802F032
:10525000004282B1002200921E4A526902F080028E
:1052600022B180221B4B5A6100229A609DE81C00EB
:1052700080E81C001EBD164A1268126802F4004243
:10528000B2B9134A1268126802F4807282B1104AED
:105290001268126802F4007252B10D4A1268126864
:1052A000C2F30D42111F0A4A12689268019200E08F
:1052B00000210091064A12680292054A1268D268DB
:1052C000034B1A609DE81C0080E81C0000BFD1E77A
:1052D000C0070020009002400348006840F0010031
:1052E00001490860704700000090024000B50120AD
:1052F000FFF7FCFEFFF716FD0120FFF7E5FE01209A
:10530000FFF7B0FC0120FFF769FC00BD012101603F
:10531000002141608160C16001614FF480414161C1
:1053200000218161C1614FF400610162002141628D
:105330008162C162016341638163C1634021016491
:105340002021416400218164C1640165416581655A
:10535000C16501668021416600218166C1660167E1
:1053600041678167C1674FF08061C0F880104910C4
:10537000C0F884100021C0F888104FF40011C0F864
:105380008C100021C0F89010C0F89410C0F898104C
:10539000C0F89C10C0F8A0104FF00071C0F8A41025
:1053A0004912C0F8A8108901C0F8AC104912C0F821
:1053B000B0100021C0F8B410C0F8B8107047000059
:1053C000014617480068006800F0004008B100205E
:1053D0007047C1F30C00124A126850601048006810
:1053E000006840F040500E4A126810600C48006897
:1053F000006840F000400A4A12681060094840699D
:1054000000F0040020B10420064A506100205060E2
:1054100003480068C068024A10600120D8E7000015
:10542000BC0700200090024038B503460C4600211E
:10543000002000901448016901F01C014FF47840ED
:1054400000EAC32001434FF4F86000EA84100143EE
:1054500041F0020141F001010B484261016100BFCE
:105460000098401C00900848016901F0010018B143
:10547000064D0098A842F3D3044D0098A84201D1EC
:10548000002038BD0120FCE700800240FFFF04003F
:105490007CB50546042D58DA2D48006840F2FF110E
:1054A00008432B490860284600F0B0FB054605EB91
:1054B000450000EBC500274901EB8004012021696C
:1054C00008800321CDE90010237F00FA03F10023B7
:1054D0000222606900F02AFB94F82820217F60698D
:1054E00000F004FB01200321CDE90010637F00FAE6
:1054F00003F100230222A06900F018FB94F8282091
:10550000617FA06900F0F2FA4FF6FF702168C8626F
:105510002068008B40F00100216808832068008B20
:1055200040F4807021680883002021684862206868
:10553000008940F00200216808812068008840F05E
:1055400001002168088000207CBD4FF0FF30FBE7A0
:10555000303802402005002010B51C4840681C4926
:105560000968401AB0F57A7F0CD918484068184984
:105570000860002404E0204600F02EF8601CC4B24D
:10558000042CF8DB00241DE00021204600F0B6F8D2
:1055900004EB44010F4A42F821000121204600F0AB
:1055A000ADF804EB44010B4A02EB81014860204650
:1055B00000F012F804EB4401064A02EB8101886016
:1055C000601CC4B2042CDFDB10BD000010050020FD
:1055D000E4050020A41E002000B50246042A7DDA5E
:1055E000104600F013FB0246042A7DDA02EB42006B
:1055F00000EBC2003E4901EB8000406800683D4975
:1056000021F8120002EB420000EBC200384901EB26
:1056100080008068384931F81210401A354931F855
:105620001210084402EB420101EBC201304B03EBC4
:1056300081018860304830F81200B0F5404F1DDB22
:105640002D4830F81200B0F5803F17DA294830F8BD
:105650001200B0F5804F11DA02EB420000EBC200FD
:10566000194601EB8000806800F5803002EB4201B2
:1056700001EBC20103EB8101886023E01E4830F892
:105680001200B0F5804F1DDA1A4830F81200B0F55C
:10569000404F17DB174830F81200B0F5803F11DAA1
:1056A00002EB420000EBC200114901EB8000806870
:1056B000A0F5803002EB420101EBC2010C4B03EB81
:1056C000810188600B4830F812000B4921F8120064
:1056D00002EB420000EBC200054901E006E003E0F6
:1056E00001EB8000806800BD0020FCE70020FAE7A5
:1056F00020050020DC050020D405002000B502466E
:105700000B46012B00DD0123042A14DA104600F0B9
:105710007DFA0246042A0BDA02EB420000EBC200DB
:10572000064901EB8000203050F82300008800BDBE
:105730004FF0FF30FBE74FF0FF30F8E72005002087
:1057400010B5002404E02046FFF7A2FE601CC4B29E
:10575000042CF8DB10BD30B5034600200AE031F818
:105760001040240A11F8105044EA052423F8104090
:10577000441CE0B202EBD275B0EB650FEFDB30BD3D
:1057800070B504460D4603260E4884600E48056039
:1057900010E00FF095FD48B94FF496600CF0D6F983
:1057A0000FF0F6FE15F09AFC002070BD4FF49660E5
:1057B0000CF0CCF93000A6F10101CEB2E9D1401EC7
:1057C000F3E70000D41E0020F4050020074800780D
:1057D00000F0400040B10548007820F04000034947
:1057E00008700348406870470020FCE7F00500207F
:1057F000D41E002070B504460D462A4621460348B3
:10580000006815F02DFD002070BD0000F805002097
:1058100030B5039C054D2870054D2970054D2A7043
:10582000054D2B70054D2C8030BD00000806002072
:10583000090600200A0600200B0600200E060020A4
:1058400030B5039C054D2870054D2970054D2A7013
:10585000054D2B70054D2C8030BD00000406002046
:105860000506002006060020070600200C06002082
:1058700010B50FF08DFE10BDFCB507460D46002695
:10588000002400200090019008220121102005F042
:1058900013FA1020FDF7CEF804460CB12046FCBDEB
:1058A0003A040121372005F007FA3720FDF7C2F846
:1058B00004460CB12046F2E7012303220821101F01
:1058C00005F010FA00220121332005F0F5F933200C
:1058D000FDF7B0F804460CB12046E0E70DE03C4887
:1058E000006800F4001040B139484C3000684DF8B1
:1058F0002600761C022E00D306E03548006840F2F0
:105900002A6108400028EAD000BF3148006800F052
:10591000080048B12E48001D006840F008002C49DE
:10592000091D08600420BAE72948006800F0020059
:1059300048B12748001D006840F002002449091DB5
:1059400008600220ABE72248006800F0200048B160
:105950001F48001D006840F020001D49091D086017
:1059600006209CE71A48006800F4007048B1184807
:10597000001D006840F400701549091D08600720EB
:105980008DE740F2FF501249091D0860009800069B
:10599000009901F47F4140EA0120009901F47F0160
:1059A00040EA1120009940EA116068600198000601
:1059B000019901F47F4140EA0120019901F47F013E
:1059C00040EA1120019940EA11602860204666E70C
:1059D000342C01400048704700000E080048704712
:1059E00000000C0870B504460E4615460C4884426B
:1059F00005D00C48844202D04FF0FF3070BDB5F5A1
:105A0000F03F02D94FF0FF30F8E700F0DDFEAA08C2
:105A10003146204606F094FD00F0DEFE0020EDE762
:105A200000000C0800000E0870B504460D46FFF794
:105A3000D1FF06462A462146FFF7D4FF70BD70B558
:105A400004460D46FFF7CAFF06462A462146FFF7E1
:105A5000C9FF70BD2DE9F04104460F4615461548B3
:105A6000844206D01448844203D04FF0FF30BDE892
:105A7000F081B5F5F03F02D94FF0FF30F7E700F0C5
:105A8000A3FE06F071FD204606F0E0FC804606F01D
:105A9000A3FC06462EB9AA083946204606F084FD26
:105AA000064606F043FD00200449086000F094FE1D
:105AB0003046DCE700000C0800000E08000801205A
:105AC00070B504460D46FFF785FF06462A46214677
:105AD000FFF7C0FF70BD70B504460D46FFF77EFFAF
